{
  "contractName": "ContractCaller",
  "abi": [
    {
      "inputs": [],
      "name": "origin",
      "outputs": [
        {
          "internalType": "address",
          "name": "",
          "type": "address"
        }
      ],
      "stateMutability": "view",
      "type": "function",
      "constant": true
    },
    {
      "inputs": [],
      "name": "sender",
      "outputs": [
        {
          "internalType": "address",
          "name": "",
          "type": "address"
        }
      ],
      "stateMutability": "view",
      "type": "function",
      "constant": true
    },
    {
      "inputs": [
        {
          "internalType": "address",
          "name": "contractB",
          "type": "address"
        }
      ],
      "name": "callLogSender",
      "outputs": [
        {
          "internalType": "address",
          "name": "",
          "type": "address"
        },
        {
          "internalType": "address",
          "name": "",
          "type": "address"
        }
      ],
      "stateMutability": "nonpayable",
      "type": "function"
    },
    {
      "inputs": [
        {
          "internalType": "address",
          "name": "contractB",
          "type": "address"
        }
      ],
      "name": "delegatecallLogSender",
      "outputs": [
        {
          "internalType": "address",
          "name": "",
          "type": "address"
        },
        {
          "internalType": "address",
          "name": "",
          "type": "address"
        }
      ],
      "stateMutability": "nonpayable",
      "type": "function"
    }
  ],
  "bytecode": "0x608060405234801561000f575f80fd5b506108448061001d5f395ff3fe608060405234801561000f575f80fd5b506004361061004a575f3560e01c806367e404ce1461004e578063938b5f321461006c578063a837e4eb1461008a578063b3ded816146100bb575b5f80fd5b6100566100ec565b604051610063919061059a565b60405180910390f35b61007461010f565b604051610081919061059a565b60405180910390f35b6100a4600480360381019061009f91906105e1565b610134565b6040516100b292919061060c565b60405180910390f35b6100d560048036038101906100d091906105e1565b610347565b6040516100e392919061060c565b60405180910390f35b5f8054906101000a900473ffffffffffffffffffffffffffffffffffffffff1681565b60015f9054906101000a900473ffffffffffffffffffffffffffffffffffffffff1681565b5f805f808473ffffffffffffffffffffffffffffffffffffffff166040516024016040516020818303038152906040527f75d6234c000000000000000000000000000000000000000000000000000000007bffffffffffffffffffffffffffffffffffffffffffffffffffffffff19166020820180517bffffffffffffffffffffffffffffffffffffffffffffffffffffffff83818316178352505050506040516101df919061069f565b5f60405180830381855af49150503d805f8114610217576040519150601f19603f3d011682016040523d82523d5f602084013e61021c565b606091505b509150915081610261576040517f08c379a00000000000000000000000000000000000000000000000000000000081526004016102589061070f565b60405180910390fd5b808060200190518101906102759190610768565b5f8060015f8491906101000a81548173ffffffffffffffffffffffffffffffffffffffff021916908373ffffffffffffffffffffffffffffffffffffffff1602179055508391906101000a81548173ffffffffffffffffffffffffffffffffffffffff021916908373ffffffffffffffffffffffffffffffffffffffff16021790555050505f8054906101000a900473ffffffffffffffffffffffffffffffffffffffff1660015f9054906101000a900473ffffffffffffffffffffffffffffffffffffffff16935093505050915091565b5f805f808473ffffffffffffffffffffffffffffffffffffffff166040516024016040516020818303038152906040527f75d6234c000000000000000000000000000000000000000000000000000000007bffffffffffffffffffffffffffffffffffffffffffffffffffffffff19166020820180517bffffffffffffffffffffffffffffffffffffffffffffffffffffffff83818316178352505050506040516103f2919061069f565b5f604051808303815f865af19150503d805f811461042b576040519150601f19603f3d011682016040523d82523d5f602084013e610430565b606091505b509150915081610475576040517f08c379a000000000000000000000000000000000000000000000000000000000815260040161046c906107f0565b60405180910390fd5b808060200190518101906104899190610768565b5f8060015f8491906101000a81548173ffffffffffffffffffffffffffffffffffffffff021916908373ffffffffffffffffffffffffffffffffffffffff1602179055508391906101000a81548173ffffffffffffffffffffffffffffffffffffffff021916908373ffffffffffffffffffffffffffffffffffffffff16021790555050505f8054906101000a900473ffffffffffffffffffffffffffffffffffffffff1660015f9054906101000a900473ffffffffffffffffffffffffffffffffffffffff16935093505050915091565b5f73ffffffffffffffffffffffffffffffffffffffff82169050919050565b5f6105848261055b565b9050919050565b6105948161057a565b82525050565b5f6020820190506105ad5f83018461058b565b92915050565b5f80fd5b6105c08161057a565b81146105ca575f80fd5b50565b5f813590506105db816105b7565b92915050565b5f602082840312156105f6576105f56105b3565b5b5f610603848285016105cd565b91505092915050565b5f60408201905061061f5f83018561058b565b61062c602083018461058b565b9392505050565b5f81519050919050565b5f81905092915050565b5f5b83811015610664578082015181840152602081019050610649565b5f8484015250505050565b5f61067982610633565b610683818561063d565b9350610693818560208601610647565b80840191505092915050565b5f6106aa828461066f565b915081905092915050565b5f82825260208201905092915050565b7f44656c656761746563616c6c206661696c6564000000000000000000000000005f82015250565b5f6106f96013836106b5565b9150610704826106c5565b602082019050919050565b5f6020820190508181035f830152610726816106ed565b9050919050565b5f6107378261055b565b9050919050565b6107478161072d565b8114610751575f80fd5b50565b5f815190506107628161073e565b92915050565b5f806040838503121561077e5761077d6105b3565b5b5f61078b85828601610754565b925050602061079c85828601610754565b9150509250929050565b7f43616c6c206661696c65640000000000000000000000000000000000000000005f82015250565b5f6107da600b836106b5565b91506107e5826107a6565b602082019050919050565b5f6020820190508181035f830152610807816107ce565b905091905056fea2646970667358221220fa80ffb9b1290396ca57fe3c82c2a11f8e49f88d9a080b814546be2f10160d1e64736f6c63430008150033",
  "immutableReferences": {},
  "source": "// contracts/ContractA.sol\n// SPDX-License-Identifier: MIT\npragma solidity ^0.8.0;\n\ncontract ContractCaller {\n    address public sender;\n    address public origin;\n\n    // Using `call` to invoke logSender in ContractB\n    function callLogSender(address contractB) external returns (address, address) {\n        (bool success, bytes memory data) = contractB.call(abi.encodeWithSignature(\"logSender()\"));\n        require(success, \"Call failed\");\n        (sender, origin) = abi.decode(data, (address, address));\n        return (sender, origin);\n    }\n\n    // Using `delegatecall` to invoke logSender in ContractB\n    function delegatecallLogSender(address contractB) external returns (address, address) {\n        (bool success, bytes memory data) = contractB.delegatecall(abi.encodeWithSignature(\"logSender()\"));\n        require(success, \"Delegatecall failed\");\n        (sender, origin) = abi.decode(data, (address, address));\n        return (sender, origin);\n    }\n}\n",
  "sourcePath": "/Users/surajnarwariya/Projects/IITDelhi_Sem-1/Blockchain/Assignment-3/PensionFundProject/contracts/ContractCaller.sol",
  "compiler": {
    "name": "solc",
    "version": "0.8.21+commit.d9974bed.Emscripten.clang"
  },
  "schemaVersion": "3.4.16",
  "updatedAt": "2024-10-24T11:24:27.555Z",
  "networkType": "ethereum",
  "devdoc": {
    "kind": "dev",
    "methods": {},
    "version": 1
  },
  "userdoc": {
    "kind": "user",
    "methods": {},
    "version": 1
  }
}