{
  "contractName": "ContractB",
  "abi": [
    {
      "inputs": [],
      "name": "origin",
      "outputs": [
        {
          "internalType": "address",
          "name": "",
          "type": "address"
        }
      ],
      "stateMutability": "view",
      "type": "function"
    },
    {
      "inputs": [],
      "name": "sender",
      "outputs": [
        {
          "internalType": "address",
          "name": "",
          "type": "address"
        }
      ],
      "stateMutability": "view",
      "type": "function"
    },
    {
      "inputs": [],
      "name": "logSender",
      "outputs": [
        {
          "internalType": "address",
          "name": "",
          "type": "address"
        },
        {
          "internalType": "address",
          "name": "",
          "type": "address"
        }
      ],
      "stateMutability": "nonpayable",
      "type": "function"
    }
  ],
  "bytecode": "0x608060405234801561000f575f80fd5b506102668061001d5f395ff3fe608060405234801561000f575f80fd5b506004361061003f575f3560e01c806367e404ce1461004357806375d6234c14610061578063938b5f3214610080575b5f80fd5b61004b61009e565b60405161005891906101f0565b60405180910390f35b6100696100c1565b604051610077929190610209565b60405180910390f35b61008861018c565b60405161009591906101f0565b60405180910390f35b5f8054906101000a900473ffffffffffffffffffffffffffffffffffffffff1681565b5f80335f806101000a81548173ffffffffffffffffffffffffffffffffffffffff021916908373ffffffffffffffffffffffffffffffffffffffff1602179055503260015f6101000a81548173ffffffffffffffffffffffffffffffffffffffff021916908373ffffffffffffffffffffffffffffffffffffffff1602179055505f8054906101000a900473ffffffffffffffffffffffffffffffffffffffff1660015f9054906101000a900473ffffffffffffffffffffffffffffffffffffffff16915091509091565b60015f9054906101000a900473ffffffffffffffffffffffffffffffffffffffff1681565b5f73ffffffffffffffffffffffffffffffffffffffff82169050919050565b5f6101da826101b1565b9050919050565b6101ea816101d0565b82525050565b5f6020820190506102035f8301846101e1565b92915050565b5f60408201905061021c5f8301856101e1565b61022960208301846101e1565b939250505056fea2646970667358221220fff3e55658d08940a828214dd7305f37aca686ccd0c32afaeb719579b317308864736f6c63430008150033",
  "immutableReferences": {},
  "source": "// contracts/ContractB.sol\n// SPDX-License-Identifier: MIT\npragma solidity ^0.8.0;\n\ncontract ContractB {\n    address public sender;\n    address public origin;\n\n    // This function will log msg.sender and tx.origin\n    function logSender() external returns (address, address) {\n        sender = msg.sender;\n        origin = tx.origin;\n        return (sender, origin);\n    }\n}\n",
  "sourcePath": "/Users/surajnarwariya/Projects/IITDelhi_Sem-1/Blockchain/Assignment-3/PensionFundProject/contracts/ContractCalled.sol",
  "compiler": {
    "name": "solc",
    "version": "0.8.21+commit.d9974bed.Emscripten.clang"
  },
  "schemaVersion": "3.4.16",
  "updatedAt": "2024-10-24T09:59:26.539Z",
  "devdoc": {
    "kind": "dev",
    "methods": {},
    "version": 1
  },
  "userdoc": {
    "kind": "user",
    "methods": {},
    "version": 1
  }
}