{
  "contractName": "PensionFund",
  "abi": [
    {
      "inputs": [
        {
          "internalType": "uint256",
          "name": "_unlockTimeInSeconds",
          "type": "uint256"
        }
      ],
      "stateMutability": "nonpayable",
      "type": "constructor"
    },
    {
      "anonymous": false,
      "inputs": [
        {
          "indexed": true,
          "internalType": "address",
          "name": "sender",
          "type": "address"
        },
        {
          "indexed": false,
          "internalType": "uint256",
          "name": "amount",
          "type": "uint256"
        },
        {
          "indexed": false,
          "internalType": "uint256",
          "name": "unlockTime",
          "type": "uint256"
        }
      ],
      "name": "Deposited",
      "type": "event"
    },
    {
      "anonymous": false,
      "inputs": [
        {
          "indexed": true,
          "internalType": "address",
          "name": "owner",
          "type": "address"
        },
        {
          "indexed": false,
          "internalType": "uint256",
          "name": "amount",
          "type": "uint256"
        }
      ],
      "name": "Withdrawn",
      "type": "event"
    },
    {
      "inputs": [],
      "name": "owner",
      "outputs": [
        {
          "internalType": "address",
          "name": "",
          "type": "address"
        }
      ],
      "stateMutability": "view",
      "type": "function",
      "constant": true
    },
    {
      "inputs": [],
      "name": "unlockTime",
      "outputs": [
        {
          "internalType": "uint256",
          "name": "",
          "type": "uint256"
        }
      ],
      "stateMutability": "view",
      "type": "function",
      "constant": true
    },
    {
      "inputs": [],
      "name": "deposit",
      "outputs": [],
      "stateMutability": "payable",
      "type": "function",
      "payable": true
    },
    {
      "inputs": [],
      "name": "withdraw",
      "outputs": [],
      "stateMutability": "nonpayable",
      "type": "function"
    },
    {
      "inputs": [],
      "name": "getBalance",
      "outputs": [
        {
          "internalType": "uint256",
          "name": "",
          "type": "uint256"
        }
      ],
      "stateMutability": "view",
      "type": "function",
      "constant": true
    }
  ],
  "bytecode": "0x608060405234801561000f575f80fd5b50604051610820380380610820833981810160405281019061003191906100bf565b335f806101000a81548173ffffffffffffffffffffffffffffffffffffffff021916908373ffffffffffffffffffffffffffffffffffffffff160217905550804261007c9190610117565b6001819055505061014a565b5f80fd5b5f819050919050565b61009e8161008c565b81146100a8575f80fd5b50565b5f815190506100b981610095565b92915050565b5f602082840312156100d4576100d3610088565b5b5f6100e1848285016100ab565b91505092915050565b7f4e487b71000000000000000000000000000000000000000000000000000000005f52601160045260245ffd5b5f6101218261008c565b915061012c8361008c565b9250828201905080821115610144576101436100ea565b5b92915050565b6106c9806101575f395ff3fe608060405260043610610049575f3560e01c806312065fe01461004d578063251c1aa3146100775780633ccfd60b146100a15780638da5cb5b146100b7578063d0e30db0146100e1575b5f80fd5b348015610058575f80fd5b506100616100eb565b60405161006e91906103ff565b60405180910390f35b348015610082575f80fd5b5061008b6100f2565b60405161009891906103ff565b60405180910390f35b3480156100ac575f80fd5b506100b56100f8565b005b3480156100c2575f80fd5b506100cb6102e3565b6040516100d89190610457565b60405180910390f35b6100e9610306565b005b5f47905090565b60015481565b60015442101561013d576040517f08c379a0000000000000000000000000000000000000000000000000000000008152600401610134906104f0565b60405180910390fd5b5f8054906101000a900473ffffffffffffffffffffffffffffffffffffffff1673ffffffffffffffffffffffffffffffffffffffff163373ffffffffffffffffffffffffffffffffffffffff16146101ca576040517f08c379a00000000000000000000000000000000000000000000000000000000081526004016101c190610558565b60405180910390fd5b5f4790505f8111610210576040517f08c379a0000000000000000000000000000000000000000000000000000000008152600401610207906105e6565b60405180910390fd5b5f8054906101000a900473ffffffffffffffffffffffffffffffffffffffff1673ffffffffffffffffffffffffffffffffffffffff166108fc8290811502906040515f60405180830381858888f19350505050158015610272573d5f803e3d5ffd5b505f8054906101000a900473ffffffffffffffffffffffffffffffffffffffff1673ffffffffffffffffffffffffffffffffffffffff167f7084f5476618d8e60b11ef0d7d3f06914655adb8793e28ff7f018d4c76d505d5826040516102d891906103ff565b60405180910390a250565b5f8054906101000a900473ffffffffffffffffffffffffffffffffffffffff1681565b5f8054906101000a900473ffffffffffffffffffffffffffffffffffffffff1673ffffffffffffffffffffffffffffffffffffffff163373ffffffffffffffffffffffffffffffffffffffff1614610393576040517f08c379a000000000000000000000000000000000000000000000000000000000815260040161038a9061064e565b60405180910390fd5b3373ffffffffffffffffffffffffffffffffffffffff167f73a19dd210f1a7f902193214c0ee91dd35ee5b4d920cba8d519eca65a7b488ca346001546040516103dd92919061066c565b60405180910390a2565b5f819050919050565b6103f9816103e7565b82525050565b5f6020820190506104125f8301846103f0565b92915050565b5f73ffffffffffffffffffffffffffffffffffffffff82169050919050565b5f61044182610418565b9050919050565b61045181610437565b82525050565b5f60208201905061046a5f830184610448565b92915050565b5f82825260208201905092915050565b7f46756e647320617265206c6f636b656420756e74696c20756e6c6f636b2074695f8201527f6d65000000000000000000000000000000000000000000000000000000000000602082015250565b5f6104da602283610470565b91506104e582610480565b604082019050919050565b5f6020820190508181035f830152610507816104ce565b9050919050565b7f4f6e6c79206f776e65722063616e2077697468647261772066756e64730000005f82015250565b5f610542601d83610470565b915061054d8261050e565b602082019050919050565b5f6020820190508181035f83015261056f81610536565b9050919050565b7f4e6f2066756e647320617661696c61626c6520666f72207769746864726177615f8201527f6c00000000000000000000000000000000000000000000000000000000000000602082015250565b5f6105d0602183610470565b91506105db82610576565b604082019050919050565b5f6020820190508181035f8301526105fd816105c4565b9050919050565b7f4f6e6c79206f776e65722063616e206465706f7369742066756e6473000000005f82015250565b5f610638601c83610470565b915061064382610604565b602082019050919050565b5f6020820190508181035f8301526106658161062c565b9050919050565b5f60408201905061067f5f8301856103f0565b61068c60208301846103f0565b939250505056fea2646970667358221220ed864a92a142136dccea39b3b71eebf27a512bb6bf2a875b49c80c66305a91d964736f6c63430008150033",
  "immutableReferences": {},
  "source": "// SPDX-License-Identifier: MIT\npragma solidity ^0.8.0;\n\ncontract PensionFund {\n    address public owner;\n    uint256 public unlockTime;\n\n    // Events\n    event Deposited(address indexed sender, uint amount, uint256 unlockTime);\n    event Withdrawn(address indexed owner, uint amount);\n\n\n    constructor(uint256 _unlockTimeInSeconds) {\n        owner = msg.sender;\n        unlockTime = block.timestamp + _unlockTimeInSeconds; // Lock funds until specified time\n    }\n\n    function deposit() public payable {\n        require(msg.sender == owner, \"Only owner can deposit funds\");\n        emit Deposited(msg.sender, msg.value, unlockTime);\n    }\n\n    function withdraw() public {\n        require(block.timestamp >= unlockTime, \"Funds are locked until unlock time\");\n        require(msg.sender == owner, \"Only owner can withdraw funds\");\n        uint256 balance = address(this).balance;\n        require(balance > 0, \"No funds available for withdrawal\");\n\n        payable(owner).transfer(balance);\n        emit Withdrawn(owner, balance);\n    }\n\n    function getBalance() public view returns (uint256) {\n        return address(this).balance;\n    }\n}\n",
  "sourcePath": "/Users/surajnarwariya/Projects/IITDelhi_Sem-1/Blockchain/Assignment-3/PensionFundProject/contracts/PensionFund.sol",
  "compiler": {
    "name": "solc",
    "version": "0.8.21+commit.d9974bed.Emscripten.clang"
  },
  "schemaVersion": "3.4.16",
  "updatedAt": "2024-10-24T11:24:27.553Z",
  "networkType": "ethereum",
  "devdoc": {
    "kind": "dev",
    "methods": {},
    "version": 1
  },
  "userdoc": {
    "kind": "user",
    "methods": {},
    "version": 1
  }
}